S00F0000562D4D65746F722E737265638B
S113000012C02CC02BC02AC029C028C027C026C0BB
S113001025C075C023C022C021C020C01FC01EC07F
S11300201DC01CC01BC011241FBECFE5D4E0DEBF21
S1130030CDBF10E0A0E6B0E0E8E3F6E002C0059032
S11300400D92AA37B107D9F720E0AAE7B0E001C0C2
S11300501D92A838B207E1F7FCD0ECC2D1CF4F9281
S11300605F926F927F928F929F92AF92BF92CF9244
S1130070DF92EF92FF926B017C010F2EFAE04F2E7C
S1130080512C612C712CF02DA3019201B1D27093EB
S11300908700609386000F2EF4E68F2E912CA12CFE
S11300A0B12CF02DC701B601A5019401A1D2A30181
S11300B092019ED23093850020938400C701B6013B
S11300C028EE33E040E050E093D269017A01A501C3
S11300D094018ED23093830020938200D0928100C9
S11300E0C0928000FF90EF90DF90CF90BF90AF90D0
S11300F09F908F907F906F905F904F9008951F9284
S11301000F920FB60F921124CF92DF92EF92FF92CB
S11301102F933F934F935F936F937F938F939F930B
S1130120AF93BF93EF93FF9380916500813059F4AF
S1130130E0918600F0918700EE0FFF1FEA59FF4F10
S11301408081806382BB80916500823041F5E091BB
S11301508400F0918500EE0FFF1FEA59FF4F808164
S1130160806282BBC0907A00D0907B00E0907C00DB
S1130170F0907D0020E030E040E251E4C701B60198
S1130180A8D188234CF420E030E040E85FE3C701C5
S1130190B601E5D0882314F4969A01C0969880910C
S11301A06500833041F5E0918200F0918300EE0F09
S11301B0FF1FEA59FF4F8081806182BBC0907A00A3
S11301C0D0907B00E0907C00F0907D0020E030E057
S11301D040E251E4C701B601C2D088235CF420E0B8
S11301E030E040E85FE3C701B60173D1882314F01F
S11301F0969A01C0969880916500843051F4E091FC
S11302008000F0918100EE0FFF1FEA59FF4F8081BB
S113021082BB809165008F5F853018F48093650000
S113022003C081E080936500FF91EF91BF91AF918E
S11302309F918F917F916F915F914F913F912F91FA
S1130240FF90EF90DF90CF900F900FBE0F901F9014
S113025018958FEF81BBA098A29A12BA379A359A53
S1130260329886B1836086B93E9A87B187B93D9842
S113027087B1807F87B9369A83B7826083BF83B79B
S11302808A7F83BF89B7816089BF12BE83ED90E303
S11302900197F1F700C000007894CAE0D4E6349BDB
S11302A0FECF64B175B170937F0060937E0080E0EF
S11302B090E085D02CEE31E540EA50E40ED1209157
S11302C0610030916200409163005091640005D157
S11302D020E030E040E85AE300D16B017C016093F8
S11302E07A0070937B0080937C0090937D0020E0E3
S11302F030E040E251E4EDD088231CF0C09360006C
S113030017C020E030E040E251E4C701B60127D035
S1130310882364F420E030E040E85FE3C701B601DD
S1130320D8D018161CF4D093600002C0C0936000AB
S11303306091600070E080E090E043D0A7019601F6
S1130340CCD011D08CDE78949FE52AEE80E09150D9
S113035020408040E1F700C00000349AA0CF6CD068
S113036008F481E0089594D088F09F5790F0B92F55
S11303709927B751A0F0D1F0660F771F881F991FF6
S11303801AF0BA95C9F712C0B13081F09BD0B1E030
S1130390089598C0672F782F8827B85F39F0B93F40
S11303A0CCF3869577956795B395D9F73EF49095F8
S11303B08095709561957F4F8F4F9F4F0895E89476
S11303C009C097FB3EF490958095709561957F4F99
S11303D08F4F9F4F9923A9F0F92F96E9BB27939547
S11303E0F695879577956795B795F111F8CFFAF457
S11303F0BB0F11F460FF1BC06F5F7F4F8F4F9F4F88
S113040016C0882311F096E911C0772321F09EE8E5
S1130410872F762F05C0662371F096E8862F70E04B
S113042060E02AF09A95660F771F881FDAF7880F25
S11304309695879597F90895990F0008550FAA0B7B
S1130440E0E8FEEF16161706E807F907C0F01216E3
S11304501306E407F50798F0621B730B840B950BE6
S113046039F40A2661F0232B242B252B21F408953B
S11304700A2609F4A140A6958FEF811D811D0895D8
S113048057FD9058440F551F59F05F3F71F0479541
S1130490880F97FB991F61F09F3F79F08795089526
S11304A0121613061406551FF2CF4695F1DF08C045
S11304B0161617061806991FF1CF86957105610562
S11304C008940895E894BB2766277727CB0197F90A
S11304D00895B2DF08F48FEF08950BD078C069D087
S11304E028F06ED018F0952309F05AC05FC011248B
S11304F0EACFC6DFA0F3959FD1F3950F50E0551FC7
S1130500629FF001729FBB27F00DB11D639FAA2764
S1130510F00DB11DAA1F649F6627B00DA11D661FB3
S1130520829F2227B00DA11D621F739FB00DA11DD4
S1130530621F839FA00D611D221F749F3327A00D8E
S1130540611D231F849F600D211D822F762F6A2F2A
S113055011249F5750408AF0E1F088234AF0EE0FAF
S1130560FF1FBB1F661F771F881F91505040A9F7BC
S11305709E3F510570F014C0A6CF5F3FECF3983E48
S1130580DCF3869577956795B795F795E7959F5F23
S1130590C1F7FE2B880F911D9695879597F90895BD
S11305A097F99F6780E870E060E008959FEF80EC22
S11305B0089500240A9416161706180609060895C5
S11305C000240A9412161306140605060895092E2B
S11305D00394000C11F4882352F0BB0F40F4BF2B9A
S11305E011F460FF04C06F5F7F4F8F4F9F4F0895DA
S11305F0A1E21A2EAA1BBB1BFD010DC0AA1FBB1F23
S1130600EE1FFF1FA217B307E407F50720F0A21B94
S1130610B30BE40BF50B661F771F881F991F1A9401
S113062069F760957095809590959B01AC01BD012B
S10B0630CF010895F894FFCFF7
S1130638640000803F010000010002000300040080
S10D06480500060007000800090081
S9030000FC
